:020000040800F2
:10000000001800207D450008810D0008830D0008C0
:1000100000000000000000000000000000000000E0
:10002000000000000000000000000000850D000836
:100030000000000000000000870D0008890D000886
:10004000FD45000800000000FD450008FD450008D2
:10005000FD450008FD450008FD450008FD45000878
:1000600000000000FD450008FD450008910D000856
:10007000FD450008FD450008FD45000800000000A2
:10008000FD4500080000000000000000FD450008DC
:1000900000000000FD450008FD450008FD45000882
:1000A00000000000FD45000800000000FD450008BC
:1000B000E50D00080000000000000000010E00082F
:1000C000002243088B4274D303098B425FD3030A97
:1000D0008B4244D3030B8B4228D3030C8B420DD3AA
:1000E000FF22090212BA030C8B4202D31212090238
:1000F00065D0030B8B4219D300E0090AC30B8B4276
:1001000001D3CB03C01A5241830B8B4201D38B0323
:10011000C01A5241430B8B4201D34B03C01A5241C8
:10012000030B8B4201D30B03C01A5241C30A8B420B
:1001300001D3CB02C01A5241830A8B4201D38B02F6
:10014000C01A5241430A8B4201D34B02C01A52419A
:10015000030A8B4201D30B02C01A5241CDD2C3090C
:100160008B4201D3CB01C01A524183098B4201D388
:100170008B01C01A524143098B4201D34B01C01A73
:10018000524103098B4201D30B01C01A5241C308EB
:100190008B4201D3CB00C01A524183088B4201D35A
:1001A0008B00C01A524143088B4201D34B00C01A46
:1001B0005241411A00D20146524110467047FFE7B2
:1001C00001B5002000F006F802BDC0460029F7D0B6
:1001D00076E770477047C04610B5064C2378002B71
:1001E00007D1054B002B02D0044800E000BF0123DB
:1001F000237010BD84010020000000005846000854
:10020000044B10B5002B03D00349044800E000BFA5
:1002100010BDC046000000008801002058460008BC
:1002200010B5134B5B681B041B0C124AD21AFF213A
:1002300049008A420FD90E4B1A68012082431A6086
:100240005A68120C1204802189000A435A601A6805
:1002500002431A6010BD9022D205DF39FF39916147
:10026000E131FF31C91A89B2034800F06FFDE2E7BE
:1002700058000240FF010000A0010020054AD060A4
:1002800053681B0C1B040B435360136801210B4381
:100290001360704744000240022828D0032839D058
:1002A000012812D09023DB0501229A610F329A6156
:1002B0000221224A916180229A621A680C208243AC
:1002C000083802431A60996210E09023DB0501228E
:1002D0009A617F329A61194A0221916110229A62D1
:1002E0001A680A318A4304390A431A607047902316
:1002F000DB0510229A6170329A6102210F4A9161E6
:1003000001229A621A680C208243083802431A605C
:100310009962EBE79023DB0501229A610F329A6123
:1003200070329A610221054A91621A680C20824358
:10033000083802431A609962D8E7C04600040048B2
:1003400000B597B0282200210CA804F058F910221B
:10035000002106A804F053F91422002101A804F09A
:100360004EF901230A930B930133129380235B020E
:10037000139380235B0314930AA802F03BFC00282C
:1003800018D107230693053B07930023089309938D
:10039000012106A802F0DAFE00280DD180239B027D
:1003A00001938023059301A802F06CFF002805D17A
:1003B00017B000BD72B6FEE772B6FEE772B6FEE792
:1003C000F0B5DE4657464E464546E0B595B003F0DB
:1003D00023F8FFF7B5FF182200210DA804F00FF94C
:1003E000D54E73698022D20313437361736913403E
:1003F0000493049B736980229202934613437361B2
:10040000736913400593059B73698022D2021343DD
:100410007361736913400693069B9027FF050125BE
:10042000BD611024BC6180239A46BB61C34B9846D2
:100430000223994643464A469A612023BB620D95A2
:100440000E950DA9380003F049F90D940E9500247E
:100450000F94109411940DA9380003F03FF9202354
:100460000D930E950F94109411940DA9380003F07C
:1004700035F940200D900E9411940DA9380003F029
:100480002DF952460D920E950F94109411940DA9CA
:10049000380003F023F94A460D920E950F941094FC
:1004A00011940DA9404603F019F973692B43736148
:1004B00073692B400393039BA14A9046C22292008A
:1004C00041468B581B021B0A8B5080231B010B607B
:1004D0001C2200210DA804F092F81822002107A880
:1004E00004F08DF8F3695A461343F361F36913403E
:1004F0000193019B73691343736173691340029302
:10050000029B4E4607960896013609960C9507A958
:10051000380003F0E3F8042307934A46089209964B
:100520000A940B940C9507A9380003F0D7F8082219
:1005300007924946089109960A940B940C9507A9CD
:10054000380003F0CBF87F4E33687F498C460B4070
:10055000336033687D480340802292019346134301
:100560003360336820218B43336033684027BB43BB
:100570003360336851468B430B43336033687449AF
:100580000B4033603368734F3B403360724F3B68BE
:1005900062461340102213433B603B6803405A46B7
:1005A0001A433A603B68202083433B603B6820301D
:1005B00083433B603B685246934313433B603B6835
:1005C0000B403B603B6863490B403B60C722920095
:1005D00043469B58FF218B4341468B5080235B054C
:1005E0000B60E1235B020D930E940F9410940C2387
:1005F0001193129480231B021393584C0DA92000D1
:1006000003F00CF8A2688023DB011343A360A36806
:10061000534A1340A3602268524B1A40A0235B0444
:10062000134323602268504B1A40A0231B0313433B
:100630002360A3684D4A1340A36063684C4A13408B
:100640006360A36808229343A36023682B4323605D
:100650002368AB43236000F097F8464B1878FFF708
:100660001BFE454B454AB260F36073681B0C1B04CC
:10067000802292001343736033682B433360404BF6
:10068000BB603B6849460B433B60EFF3108285F348
:100690001088A36840200343A36082F31088EFF31F
:1006A000108285F31088A36851460B43A36082F340
:1006B0001088EFF3108285F31088236870390B439C
:1006C000236082F3108823682B432360294FB846A8
:1006D0009025ED052B695B060AD56B699B06F9D55C
:1006E000142002F0BBFE9023DB0520229A62EFE784
:1006F0002B69402214001C401A42EED140260120F2
:1007000002F0ACFE01342B691E42F8D0322CE4D941
:100710003B780133DBB2032B09D8164A13704346EA
:100720001878FFF7B9FDC82002F098FED5E7114B05
:1007300000221A70F3E7C04600100240000400488F
:1007400000E100E058000240EFBFFFFFFFCFFFFFD6
:10075000FFFCFFFFFFF3FFFF4400024000440040A6
:10076000FF7FFFFFFFFF1FFCFFFFE0FFFFDFFFFF3B
:10077000FFF7FFFFA0030020A00100202444004059
:100780002844004072B6FEE710B512491248002214
:1007900003F00FF8002811D110490F4803F025F895
:1007A00000280ED10E490C4803F08CFE00280BD116
:1007B000094803F023F8002809D110BDFFF7E2FF34
:1007C000EAE7FFF7DFFFEDE7FFF7DCFFF0E7FFF712
:1007D000D9FFF2E700000020A403002074000020ED
:1007E00050000020031E03D0023B5A1E9341581CA8
:1007F0007047000000B583B00C4B02689A4201D0EC
:1008000003B000BD0A4BDA69802109040A43DA61AA
:10081000DB690B400193019B002200211F2002F0A5
:100820002FFE1F2002F05EFEEAE7C046005C00409B
:100830000010024010B5AC239B00C1184033C058D3
:1008400002F0F8FF10BD10B58B005B18DB00C31879
:100850007D33FF331A68BC239B00C05803F01CF89B
:1008600010BD10B58B005B18DB00C318DA6BBC231E
:100870009B00C05803F062F810BD10B5BC239B006C
:10088000C05803F019F910BD70B504008368022B3D
:1008900009D1BC25AD006059012103F0F0F8605981
:1008A00003F0BEF870BDFFF76DFFF2E710B504006E
:1008B000BC239B00C05803F0E5F8A369002B04D0CB
:1008C000024A136906210B43136110BD00ED00E0DD
:1008D00010B504008369002B05D1BC239B00E058B0
:1008E00003F0DCF810BD044A136906218B43136141
:1008F000FFF726FDF1E7C04600ED00E070B504000B
:100900001D48BC239B00C450303BE0501B4B036090
:1009100008234360063B8360036100238361C36156
:10092000036201F09FF8002823D1B025AD00605983
:1009300018230022002102F02BF9605958230022CD
:10094000802102F025F96059C0230022812102F0A4
:100950001FF9882360595B000022012102F018F979
:10096000802360595B000022822102F011F90020EF
:1009700070BDFFF707FFD8E768060020005C004065
:1009800010B5B0239B00C05801F0EAF8FFF72AFF2A
:1009900010BD10B514001A00B0239B00C0582300EE
:1009A00001F0B6FFFFF71EFF10BD10B5B0239B008E
:1009B000C05801F0ECFFFFF715FF10BD10B5B023D4
:1009C0009B00C05802F070F8FFF70CFF10BD10B587
:1009D000B0239B00C05802F09EF8FFF703FF10BD44
:1009E000B0239B00C3584AB2002A09DB7F22114082
:1009F0008A005218D2009B186B33FF331878704767
:100A00007F22114001318A005218D2009B18987839
:100A1000F5E710B5B0239B00C05801F0B8F8FFF718
:100A2000E1FE10BD10B5B024A400005902F018F882
:100A3000FFF7D8FE10BD10B5B024A400005901F096
:100A4000DAFFFFF7CFFE10BD10B5B0239B00C058F2
:100A500001F0FCFF10BD0000004870475C09002059
:100A60007047000012230B80004870471C000020D4
:100A700004230B80004870473000002030B5002A66
:100A800011D00023002508E037340C7000014D70B0
:100A90000133DBB202319A4205D0040F092CF3D89E
:100AA00030340C70F2E730BD70B51A230B800B4B5D
:100AB00018680B4B1B68C018002801D1094870BD8D
:100AC000094B1D68074CA11C0822FFF7D7FF210026
:100AD000123104222800FFF7D1FFEFE7ACF7FF1F28
:100AE000B4F7FF1F34000020B0F7FF1F10B50A0055
:100AF000002805D10549064803F001FB034810BD55
:100B00000249034803F0FBFAF8E7C0467C0B0020DB
:100B10007046000810B50A00034C0448210003F099
:100B2000EEFA200010BDC0467C0B00207446000881
:100B300010B50A00002805D10549064803F0DFFA80
:100B4000034810BD0249034803F0D9FAF8E7C0464C
:100B50007C0B00208446000810B50A00002805D14F
:100B60000549064803F0CBFA034810BD0249034883
:100B700003F0C5FAF8E7C0467C0B00209046000859
:100B80000020704770B5202804D0212800D190E0C3
:100B9000002070BD4B781B028A78120413430A7838
:100BA0001343CA78120613434A4A13600A794879F4
:100BB00089799624A401A34252D2464B1C6000239B
:100BC000022484425B415B421840424B5871531EE1
:100BD000581E83415B421A403E4B1A71CB1F012BBA
:100BE00000D908213B4B99713B4980225202CB69C5
:100BF0001342FCD1384C2368012293432360354DC6
:100C00002968364B186840004B08C018FFF758FA9F
:100C1000334B03400007400F1843E0606B79022B11
:100C200024D0012B2AD02C4A13682E490B40136084
:100C3000284B1B79022B2AD0274A53682A490B409C
:100C40005360244B9B79072B2AD0234A13682749EA
:100C50000B401360204A136801210B43136097E790
:100C6000234CA342ABD91B4B1C60A8E722681D4B49
:100C70001A408023DB0013432360D9E716490A6832
:100C8000184B1A40C023DB0013430B60D0E7124916
:100C90004A68154B1A4080239B0113434B60D0E7F1
:100CA0000D490A68114B1A4080235B0513430B6002
:100CB000D0E7084B1A680A701A68120A4A705A88F4
:100CC0008A70DA78CA701A790A715A794A719B79EE
:100CD0008B715DE760000020004400407000002040
:100CE000F0FF0000FFF9FFFFFFCFFFFFFFEFFFEF77
:100CF00040420F0070B505000968FFF7BFFA074CC6
:100D0000012223681A42FCD0054C2900200003F080
:100D1000EDFB200003F012FC002070BD44000240F7
:100D2000A403002010B50649064C0022200003F061
:100D3000D2FB0549200003F0D9FB002010BDC046BE
:100D40007C0E0020A40300207C0D002010B50400C0
:100D50000A000A4BAE218900595885239B00CB58C5
:100D60000120002B00D010BD044B21001C001800F6
:100D700003F0B1FB200003F0C0FBF4E7A403002064
:100D8000FEE7FEE77047704710B502F055FB10BD57
:100D9000124B1B685B0403D5104B8022D2015A60B2
:100DA0000E4B1B689B0408D50C4B802292015A60A5
:100DB0000B4A136801218B431360084B1B685B03CC
:100DC00003D5064B8022D2025A60044B1B689B035A
:100DD00003D5024B802292025A6070470000024005
:100DE0004400024010B5054BDB69DB0604D5034B1C
:100DF00010221A62FFF714FA10BDC04600440040EA
:100E000010B5024800F0DAFE10BDC04668060020AA
:100E100082B00C4B996901221143996199690A408A
:100E20000092009ADA69802149050A43DA61DB6998
:100E30000B400193019B044A136810210B4313607C
:100E400002B070470010024000000140442300221D
:100E5000C252043B014AC2520020704780BFFFFFCC
:100E60004022835A02490B40835200207047C046FB
:100E70007F40000084B0019102920393402201233D
:100E8000835200238352043283520C328352002057
:100E900004B07047F0B503000D78AD0045192A88FD
:100EA000A7480240C878022851D006D800284AD066
:100EB0008020C0000243002007E0032804D1C020A6
:100EC000C0000243002000E001209E4C224392B269
:100ED0002A800E78B5005D192A889B4F3A4032432C
:100EE0001443A4B22C800A7B002A00D08BE04A78FD
:100EF000002A38D050229C5A0A78D2009A188025AD
:100F0000ED00AC466244A418CA8852085200228000
:100F10000A7892009A181488640604D514883C4014
:100F20008A4D2C431480CA78012A12D00A78920084
:100F30009B181988864A114020225140814A0A4351
:100F400092B21A8048E08024A4002243BDE700202A
:100F5000BBE70A7892009B181A887D490A407D49B0
:100F60000A431A8038E050255C5B0A78D200D21818
:100F7000794EB4466244A418CA88520852002280AE
:100F80005C5B0A78D200D218744DAC466244A21859
:100F90000C69002C21D11488714D2C4014801488C8
:100FA00080252D022C4314800A7892009A18148808
:100FB000640405D51488644D2C406A4D2C4314807C
:100FC0000A7892009B181988674A1140C022920142
:100FD0004A4060490A431A80F0BD3E2C07D8650894
:100FE000012634402D19AD02ADB21580DCE765094C
:100FF0001F263440664274412D1BAD025B4C2C43CE
:10100000A4B21480D0E7CA78022A54D00A78920099
:101010009A181488564D2C404E4D2C431480502560
:101020005C5B0A78D200D2188026F600B44662448F
:10103000A4180A895208520022805C5B0A78D20008
:10104000D218454DAC466244A4184A895208520051
:1010500022804A78002A38D10A7892009A18148897
:10106000640405D51488384D2C403E4D2C43148023
:101070000A7892009A181488640605D51488324DAF
:101080002C40324D2C4314800D78AD005D192C8816
:10109000354A1440C022920162402A4C224392B247
:1010A0002A800A7892009B181A8829490A4014431A
:1010B000A4B21C8090E70A7892009A181488224DF6
:1010C0002C402C4D2C431480A9E70A7892009A18E2
:1010D0001488640405D514881B4D2C40214D2C43E5
:1010E00014800A7892009A181488640605D514882A
:1010F000154D2C40154D2C431480CA78012A15D06B
:101100000A7892009A181588114C254020246540D1
:101110000C4C2C43A4B214800A7892009B181A88B5
:1011200011490A400B490A431A8055E70A78920090
:101130009A181488064D2C40064D2C431480EBE77A
:101140008F89FFFF8080FFFF8F8FFFFFC08000002F
:10115000BF8FFFFF80800000040400000604000031
:10116000FF83FFFF80C000008FBFFFFF0080FFFFF5
:101170008F8EFFFF8081000010B50B7B002B2FD1DD
:101180004B78002B16D00B789B00C3181A88520698
:1011900005D51A88494C2240494C22431A800B78C5
:1011A0009B00C3181A8847490A4047490A431A80D6
:1011B000002010BD0B789B00C3181A88520405D577
:1011C0001A883E4C2240414C22431A800B789B00E7
:1011D000C3181A883E490A403B490A431A80E7E788
:1011E0004B78002B34D10B789B00C3181A8852041B
:1011F00005D51A88314C2240344C22431A800B7892
:101200009B00C3181A88520605D51A882B4C224019
:101210002B4C22431A800B789B00C3181A88274C4A
:101220002240274C22431A800C78A40004192388FA
:10123000274A1340274A13439BB223800B789B0015
:10124000C31819881F4801400A4392B21A80AFE7B9
:101250000B789B00C3181A88520405D51A88174CBE
:1012600022401A4C22431A800B789B00C3181A881C
:10127000520605D51A88114C2240114C22431A807F
:101280000B789B00C3181A880C4C22400F4C224349
:101290001A800C78A400041923880A4A13400D4AC6
:1012A00013439BB223800B789B00C0180388084926
:1012B0000B401A4392B202807AE7C0468F8FFFFF3D
:1012C000C0800000BF8FFFFF8080000080C0000052
:1012D0008FBFFFFF8080FFFF4B78002B0DD00B7876
:1012E0009B00C01802880B4B1A4010235A400A4B2F
:1012F00013439BB20380002070470B789B00C018FB
:101300000288064B1A4080235B015340044A134372
:101310000380F0E7BF8FFFFF8080FFFF8FBFFFFFDD
:101320008080000010B50B7B002B36D14B78002B52
:101330001BD00B789B00C3181A88520605D51A8853
:10134000174C2240174C22431A80CB78012B24D013
:101350000B789B00C3181988134A11402022514072
:10136000124A0A4392B21A8017E00B789B00C31806
:101370001A88520405D51A88094C22400C4C224385
:101380001A800B789B00C01802880A4B1A40C023B1
:101390009B015340084A13430380002010BDC04600
:1013A0008F8FFFFFC0800000BF8FFFFF8080FFFF97
:1013B00080C000008FBFFFFF80800000002902D1A5
:1013C0004C238022C252002070475822835A802129
:1013D00009020B438352002070474423C05A80B255
:1013E000704730B501335B088024E400A4466244B2
:1013F0008018002B0CD05C000C190B00401AC1188F
:101400005A7812021D782A430A8002339C42F6D190
:1014100030BD0000F8B505000C004B78012B2DD035
:101420000A7B002A00D0E8E18A690B6900219A4210
:1014300001D9D11A1A00A1615023E95AC04BEB1807
:101440005B182178C9005B18002A00D0BFE11A8818
:10145000BC490A401A801A88802109020A431A806E
:1014600023789B00EB181988B74A1140C0229201DB
:101470004A40B6490A431A800020F8BD0A698E69BD
:10148000964200D91600237B002B1BD0E378022B59
:1014900036D0236A9B1B236223789A00AA181288ED
:1014A000520600D484E15022A95AA54AAA1852181B
:1014B000DB00D218B3B21380628961692800FFF79C
:1014C00090FF0FE0B6B2E288616933002800FFF7B1
:1014D00088FF5023E95A2378DB009D4AAA18521846
:1014E0009B181E8023789B00EB181988994A11409D
:1014F00030225140984A0A4392B21A800020BCE739
:10150000236A9A4200D33AE123789B00EB181A88A9
:1015100092490A4092490A431A80236A9B1B23621C
:1015200023789A00AA181288520600D489E06278BB
:10153000002A28D15032AA5A814969185218DB0072
:10154000D318002E09D11A887E490A401A801A88B9
:10155000802109020A431A8017E03E2E07D872083C
:10156000012131405218920292B21A800DE07209A4
:101570001F21314048424141521A9102794A0A439F
:1015800092B21A8001E0012A27D0B3B26289616960
:101590002800FFF726FF63699B196361236A2169AD
:1015A00000228B4201D99A1B330022626278002A02
:1015B00033D15032A95A2278D20065482818091828
:1015C0005218002B13D111885E48014011801188F8
:1015D000802000020143118021E04F32AA5A58496D
:1015E00069185218DB00D318B2B21A80CDE73E2B2F
:1015F00007D85908012018400918890289B21180BA
:101600000DE059091F20184046427041091A88020E
:101610005449014389B2118001E0012A06D09BB2EE
:10162000228961692800FFF7DCFE5BE74F32A95A87
:101630002278D200464828180918521899B2118009
:10164000EDE76278002A28D15032A95A404AAA18F8
:101650005218DB00D318002E09D11A8839490A40E4
:101660001A801A88802109020A431A8017E03E2E48
:1016700007D87208012131405218920292B21A80A2
:101680000DE072091F21314048424141521A910236
:10169000344A0A4392B21A8001E0012A27D0B3B239
:1016A000228961692800FFF79CFE63699B196361C9
:1016B000236A216900228B4201D99A1B33002262DE
:1016C0006278002A33D15032A95A2278D2001C48BD
:1016D000281809185218002B13D1118819480140F5
:1016E00011801188802000020143118021E04F32D7
:1016F000A95A174AAA185218DB00D318B2B21A8096
:10170000CDE73E2B07D85908012018400918890257
:1017100089B211800DE059091F20184046427041DE
:10172000091A88020F49014389B2118001E0012A98
:101730001AD09BB2628961692800FFF752FED1E698
:1017400006040000FF83FFFF8FBFFFFF80800000C3
:1017500002040000BF8FFFFF8080FFFF8F8FFFFF1D
:10176000808100000080FFFF4F32A95A2278D2000A
:10177000A34828180918521899B21180D9E722787D
:101780009200AA1811889F4801409F480143118088
:101790005022A85A2278D2009C4969180918521878
:1017A0009BB21380228961692800FFF71AFE99E62F
:1017B0005022A95A954AAA185218DB00D218B3B27F
:1017C0001380228961692800FFF70BFE8AE63E2A12
:1017D00007D85108012002408918890289B219806E
:1017E0003EE651091F20024050424241891A8902B7
:1017F000874A0A4392B21A8032E6CA78022A38D05F
:101800000120012A00D038E68A69096900208A424D
:1018100001D9501A0A00A061002B00D020E65033F5
:10182000E95A2378DB007948281809185B18002A40
:1018300000D09AE0198877480140198019888020E3
:101840000002014319806378002B00D0C8E05023C8
:10185000EA5A2378DB006A49691852189B181A88DB
:101860006C490A401A801A88802109020A431A80AA
:10187000F6E5002B2AD15033C25A0B78DB006349BE
:10188000411852189B182269002A35D11A886149DB
:101890000A401A801A88802109020A431A80637854
:1018A000002B55D15033EA5A2378DB00544969188C
:1018B00052189B182269002A34D11A8855490A40C7
:1018C0001A801A88802109020A431A80E369002BD2
:1018D00000D1C5E523789B00EB181A884E490A40D1
:1018E0008A4202D0002A00D0BAE51A884B490A4041
:1018F0004B490A431A80B3E53E2A07D85108012014
:1019000002408918890289B21980C8E751091F204D
:10191000024050424241891A89023D4A0A4392B22A
:101920001A80BCE73E2A07D85108012002408918D6
:10193000890289B21980C9E751091F20024050422B
:101940004241891A8902324A0A4392B21A80BDE79B
:10195000012BBBD14F33EA5A2378DB0028496918A1
:1019600052189B18228A1A80B0E73E2A19D85008CC
:1019700001210E0016408119890289B2198063780D
:10198000002B2DD15023EB5A1D4AAA189B18227800
:10199000D2009B18721E96418019800280B2188076
:1019A0005EE551091F20104047424741CF1BBF024F
:1019B000174E3E43B6B21E806378002B10D15023E1
:1019C000EB5A0F4AAA189B182278D2009B18424261
:1019D0005041091A89020E4A0A4392B21A803FE521
:1019E000012B00D03CE54F33E95A2378DB00044853
:1019F000844661445B18EB1892B21A8030E5C04609
:101A0000060400008F8EFFFF8080000002040000AB
:101A10000080FFFFFF83FFFF404000008F8FFFFF2C
:101A2000C0800000F0B55F088024E400A446624452
:101A300080180200002F0FD00C003D00461A32190A
:101A4000128892B22270120A62700234013D002D97
:101A5000F5D17F00C219C919DB0701D513880B70B6
:101A6000F0BD0000F0B5D6464F464646C0B586B03C
:101A7000041E00D16FE0394BC35C002B5FD0374BA5
:101A80000322E2542068FFF7EBF96168002939D09E
:101A9000002229239846283B9C4627339946033346
:101AA0009A46002590008318DB00E31846466746F7
:101AB0009F554E469A55DA8656469D559D63DD6381
:101AC0001D640132D2B28A42ECD30020002582008C
:101AD0001318DB00E3181E006A36FF363570013E2E
:101AE0003070033635700D3635607D33FF331D6041
:101AF0001218D200A2188132FF3215600130C0B234
:101B00008842E4D32068230010336A4662CB62C265
:101B100022CB22C26168A268E368FFF7ABF92423F5
:101B20000022E2540D4B0132E254E3690020012B04
:101B30000CD006B0E0BCBA46B146A846F0BDAA2318
:101B40009B000022C254FEF755FE98E7200001F0EA
:101B50003CF80020EDE70120EBE7C046A9020000B9
:101B600070B50400AA239B00C35C012B0DD0AA25ED
:101B7000AD00012343550068FFF768F92068FFF7BF
:101B800024FC00236355002070BD0220FCE770B5E3
:101B90000400AA239B00C35C012B0CD0AA25AD0036
:101BA000012343552333C1540068FFF707FC00238A
:101BB0006355002070BD0220FCE70000F0B5DE4652
:101BC00057464E464546E0B583B004000068FFF72F
:101BD00004FC000400D58AE02068FFF7FEFB400506
:101BE00001D500F07EFD2068FFF7F7FB400405D526
:101BF000216844228B5ACD4803408B522068FFF75E
:101C0000ECFB800405D5216844228B5AC848034068
:101C10008B522068FFF7E1FBC0041AD521684023EE
:101C2000CA5A04208243CA522168CA5A04308243E5
:101C3000CA52B8239B00E35C012B01D100F060FD88
:101C40002000FEF745FE216844228B5AB948034024
:101C50008B522068FFF7C1FB000501D500F05AFD4B
:101C60002068FFF7BAFB000628D5216844228B5A6A
:101C7000802083438B52B8239B00E35C002B01D070
:101C800000F05EFD21684033CA5A7C380243CA52D4
:101C90002168CA5A04300243CA52B8239B00012269
:101CA000E25422685423D25A9208183B1340B922B6
:101CB0009200A3500121200000F09AFF2068FFF756
:101CC0008CFB800501D500F040FD2068FFF785FB07
:101CD000C00505D5216844228B5A974803408B5292
:101CE00003B0F0BCBB46B246A946A046F0BD206892
:101CF0004423C35A1BB2002B00DB6DE744271F238C
:101D000099461E3B9B46B0E003888C4A13408022D4
:101D100012021343038022685023D35A2821615CA6
:101D2000C90052189B18864A944663441B889B0539
:101D30009B0D6364E26BD318E36300212000FEF780
:101D400090FD2423E35C002B00D188E0236C002B62
:101D500000D084E02422A35C206880210B43343926
:101D600043520023A3547AE05023C35AB4225200B2
:101D7000A25CD20082189B18724A944663441B8866
:101D80009B059B0D22006932FF32D361D288AC21C2
:101D900089006118FFF746FE226813886A490B40E4
:101DA00080210B4313802000FEF744FD57E03E2ABC
:101DB00007D85108584602408918890289B219800B
:101DC000A8E051094846024050424241891A89021E
:101DD0005E4A0A4392B21A809CE0AE0080190388E2
:101DE0009AB290461BB2002B00DAB7E043461B06BE
:101DF00035D522689219138850490B408021090279
:101E00000B431380AE007619F600A6192B23F35C62
:101E1000022B00D150E20022326443465B0600D41C
:101E200014E22923F35C002B00D0FEE1226850333A
:101E3000D15A283BF35CDB00414884466244521887
:101E40009B181A8842490A401A801A888021090280
:101E50000A431A802823F15C2000FEF702FD206867
:101E6000C35B1BB2002B00DBB6E6C35B99B20F224B
:101E70001D0015401342B0D1C90600D444E70388C1
:101E80009AB21B0500D56FE712B2002AE7DA038881
:101E90002D4A134080221343038020685023C35AE5
:101EA000E832A25CD20082189B18264A944663440A
:101EB0001B889B059B0D22006932FF32D361002BEA
:101EC0000ED0516900290BD01500D288FFF7AAFD6A
:101ED0006B69EA699B186B6100212000FEF7B3FC77
:101EE00023681A881205BAD450229A5A15498C468A
:101EF00063449B1822006932FF321269002A00D025
:101F000055E71A8812490A401A801A888021090266
:101F10000A431A8021680A880E4B1A40C0239B018D
:101F200053400D4A13430B8099E7C046FFBFFFFFA4
:101F3000FFDFFFFFFFEFFFFFFFFEFFFF0F8FFFFF42
:101F400002040000060400008F0F00000080FFFF65
:101F5000FF83FFFF8FBFFFFF808000000388D04A10
:101F600013408022134303807319DB00E318753399
:101F7000FF331B78002B4BD120685033C25A7319A2
:101F8000DB00E3186933FF331B78DB00C318D2187A
:101F9000C44B9C46624413889B059A0D9246002BC5
:101FA00028D15246AB005B19DB00E31818008530DE
:101FB000FF300168514401600838016851440160F4
:101FC0008133FF331B68002B09D0AB005B19DB00AA
:101FD000E3187933FF331B689A4200D31BE1AB004F
:101FE0005B19DB00E3186933FF3319782000FEF733
:101FF0002AFCFBE67319DB00E3181A006F32FF328C
:1020000012887D33FF3319685346FFF70BFDC8E78D
:10201000AB005B19DB00E3186C33FF331B78022B3A
:1020200034D0AB005B19DB00E3186933FF331A7857
:102030009200216889180A889B4802409B48024305
:102040000A8020681B789A0082181288520400D4F3
:10205000C3E05022825ADB00C318D318944A944636
:1020600063441B889B059A0D9246002B99D0AB00C8
:102070005B19DB00E3181A007132FF3212887D33DE
:10208000FF3319685346FFF7CDFC8AE743465B04EC
:1020900052D520685023C25AAB005B19DB00E3180D
:1020A000019319006931FF310978CB009C468444C3
:1020B00062447F4B9C46624412889205930D9A4677
:1020C000019B8133FF331A68524501D200F0E1FBD6
:1020D0005346D21AAB005B19DB00E3188133FF33A0
:1020E0001A60002A01D100F0DCFB43465B060FD5E5
:1020F000AB005B19DB00E3186933FF331B789B00EF
:102100002268D218138868490B4068490B43138032
:102110005346002B00D144E7AB005B19DB00E3180A
:102120001A007132FF3212887D33FF33196820683C
:102130005346FFF777FC34E720685023C25AAB00C0
:102140005B19DB00E318019319006931FF3109784D
:10215000CB009C4684446244524B9C4662441288A5
:102160009205930D9A46019B8133FF331A685245BD
:1021700000D2A3E35346D21AAB005B19DB00E3188D
:102180008133FF331A60002A00D19FE343465B0688
:102190000FD4AB005B19DB00E3186933FF331B7806
:1021A0009B002268D21813883F490B403F490B43DC
:1021B00013805346002B00D1F3E6AB005B19DB0024
:1021C000E3181A007332FF3212887D33FF33196827
:1021D00020685346FFF726FCE3E65022825ADB00D4
:1021E000C318D3182F4A944663441B889B059A0D45
:1021F0009246002B00D1D4E6AB005B19DB00E3185C
:102200001A007332FF3212887D33FF331968534648
:10221000FFF708FCC5E6A9004919C9006931FF317B
:1022200061182068FFF7F6F8E0E5012B00D011E611
:1022300023685022995A283AB25CD2001C4884463E
:1022400063445B18D31800221A8003E6226829230E
:10225000F35C002B13D15033D15A283BF35CDB00E5
:102260001048844662448A189B181A8811490A400B
:102270001A801A88802109020A431A80EAE5012B94
:1022800000D0E7E54F33D15A283BF35CDB0005482B
:10229000844662448A189B1800221A80DAE5C046F8
:1022A0008F0F0000060400008F8FFFFFC08000002A
:1022B00002040000FF83FFFF4346DB0530D42068A3
:1022C0005023C25A283BF15CAB005B19DB00E318DA
:1022D0001E6CCB00C318D318D04A944663441B88A5
:1022E0009B059B0D9E4200D83AE2F61AAA005219AD
:1022F000D200A2181664002E00D137E2AA005119AC
:10230000C9006118CE6BF618CE634A6CD3184B64C3
:102310000135A9004919C9006118FFF77BF89EE54E
:1023200043465B0600D4E9E021685023CA5A283BA3
:10233000F35C0193DB009C46B84B9A468A44AB00A1
:102340005B19DB00E3181B6C62445046125A92057D
:10235000920D934200D80EE2981AAB005B19DB0095
:10236000E3181864002800D10BE243465B0408D54B
:10237000019B980008180388A9490B40A9490B4301
:102380000380AB005B19DB00E3184C331B78012B97
:1023900028D02823F35C9B002168C9180A88A24B27
:1023A0001A4030235A40A14B13439BB20B8056E591
:1023B000012B00D010E24F33CB5A53446344002228
:1023C0001A80F0E1012B00D006E24F33D15A283BAE
:1023D000F35CDB009648844662448A189B1800220E
:1023E0001A80F9E1AB005B19DB00E318D96B89189F
:1023F000D963596C89185964996C9B6B994220D3A5
:10240000AA005219D200A218C91A91642922B25CFA
:10241000002A55D122685021515A8048844662448E
:1024200052182821715CC9005218002B2FD1118835
:1024300080480140118011888020000201431180F2
:1024400040E0002907D1AB005B19DB00E3184C33F7
:1024500019701300DAE7AB005B19DB00E318180012
:102460004C30002202709A642923F25C0B00002A8F
:1024700026D123685022985A283AB25CD20090465E
:10248000664A944663441B1843441A000B003E2BD3
:1024900007D85908584618400918890289B211808E
:1024A00010E0590988464846184001004842484112
:1024B0004146091A88026049014389B2118001E04E
:1024C000012A0DD09BB2A9004A19D200A218128E7F
:1024D0004919C9006118C96B2068FEF782FF58E7E7
:1024E00022685021515A4D4884466244521828218E
:1024F000715CC900521899B21180E3E72268502339
:10250000D35A2821715C0191C9008C46A900491950
:10251000C9006118096C63449B18454882465344BE
:102520001B889B059B0D994200D26AE1C91A8A4615
:10253000A9004919C900611850460864002800D153
:1025400065E14146490408D40199880010180288C1
:1025500033490A4033490A430280AA005219D20083
:10256000A2184C321278012A00D012E7AA005219A0
:10257000D200A218D16BC918D163516CC91851642B
:10258000916C926B91423ED3AB005B19DB00E31878
:10259000891A9964236801932921705C002800D06E
:1025A00080E02731585A22498C466344C0182823BA
:1025B000F35CDB00C018002A5BD103881D490B4087
:1025C00003800388802109020B4303806CE0012B08
:1025D00000D049E14F33D15A104BD3185B186344F4
:1025E00000221A8027E1012B00D03DE14F33D15A60
:1025F000283BF35CDB000E48844662448A189B1833
:1026000000221A8030E1002918D1AA005219D20004
:10261000A2184C3211701A00BCE7C0460204000038
:102620008F8FFFFF80C00000BF8FFFFF8080FFFF04
:1026300006040000FF83FFFF0080FFFFAB005B1973
:10264000DB00E31800229A644C331A70236801936C
:102650002932B05C0A00002824D150229A5A9046B0
:102660002820305CC0009F4A944663444344C0180D
:102670000A003E2A07D85308594611405B189B02AE
:102680009BB2038010E053099846494611400B0065
:102690005942594143465B1A9902934B0B439BB2F3
:1026A000038001E001280DD093B2A9004A19D2009D
:1026B000A218528E4919C9006118C96B2068FEF72B
:1026C00090FE66E65021595A2823F35CDB008548CA
:1026D00084466344019884466344CB1891B21980C0
:1026E000E2E7216844228B5A804803408B52200045
:1026F000FEF7CAF800212000FFF749FAFFF773FA46
:10270000B8239B000022E2540021200000F070FA60
:10271000FFF796FA21684023CA5A08200243CA529A
:1027200020684421425A724D2A4042522168CA5AB6
:1027300004200243CA522000FEF7B8F8FFF790FACF
:102740002000FEF7B3F8FFF7B9FA216844228B5A4C
:10275000684803408B522000FEF78FF8FFF7B5FA68
:10276000AB005B19DB00E31800221A642000FEF7BF
:1027700078F8FFF774FBAB005B19DB00E31800226D
:102780001A642923F35C002B00D011E65033CB5A96
:10279000534463441A8858490A401A801A88802191
:1027A00009020A431A8022682923F35C002B00D017
:1027B00008E65033D15A283BF35CDB004948844695
:1027C00062448A189B181A884B490A401A801A8852
:1027D000802109020A431A802823F15C2000FEF7B9
:1027E00040F843465B0400D4D3E52823F35C9B0008
:1027F0002268D218138841490B4041490B4313808A
:10280000C7E5AB005B19DB00E3180021196429233D
:10281000F35C002B00D0DAE65033D15A394BD31891
:102820005B1863441A8834490A401A801A88802148
:1028300009020A431A8022682923F35C002B00D086
:10284000D1E65033D15A283BF35CDB00254884465F
:1028500062448A189B181A8827490A401A801A88E5
:10286000802109020A431A802823F15C2000FDF729
:10287000F8FF43465B0400D58BE52823F35C9B00FF
:102880002268D21813881D490B401D490B43138041
:102890007FE5AB005B19DB00E3188133FF330022D7
:1028A0001A60890041180A88174B1A4080239B013F
:1028B0005340164A13430B80FFF717FCAB005B191C
:1028C000DB00E3188133FF3300221A6089004118CE
:1028D0000A880D4B1A4080239B0153400B4A134337
:1028E0000B8053E4060400000080FFFFFFFBFFFFA6
:1028F000FFF7FFFFFFFDFFFFFF83FFFF8F8FFFFF4E
:1029000080C00000020400008FBFFFFF8080000035
:1029100070B504000D0049B2002929DB07262E40BE
:10292000B0008119C9006931FF3161188019C000F8
:1029300020186A30FF3000260670072028400870F3
:102940000A61CB704A78002A00D0C881022B19D0C6
:10295000AA239B00E35C012B17D0AA25AD0001231D
:1029600063552068FEF796FA00236355002070BD7A
:1029700007262E400136B0008119C90061180126D2
:102980004E70DAE700230B71E2E70220EFE770B543
:1029900004000A004BB2002B21DB07200840830013
:1029A0001918C9006931FF3161181B18DB00E318E1
:1029B0006A33FF3300201870072313400B70AA23DB
:1029C0009B00E35C012B14D0AA25AD0001236355C5
:1029D0002068FEF7D1FB00236355002070BD07205F
:1029E0000840013083001918C9006118012048709F
:1029F000E2E70220F2E7F8B507260E40B400A1197D
:102A0000C9006931FF314118A519ED0045192F00A2
:102A10007D37FF373A602A008132FF32136004327B
:102A2000002313606A35FF352B70A419E4000419E4
:102A30006934FF342670002E04D10068FEF7EAFCEA
:102A40000020F8BD0068FEF7E5FCF9E707230B401E
:102A50009900C918C90040188530FF3000687047D8
:102A6000F8B507260E40741CA1000919C9004118C9
:102A7000B400A519ED004519EA632B642F004C370B
:102A800001223A70AB6400236B642933EA54013BA2
:102A9000EE54002E04D10068FEF7BCFC0020F8BD07
:102AA0000068FEF7B7FCF9E770B504000B000722D9
:102AB0000A4041688A422AD859B200291FDB98008F
:102AC000C118C9006931FF316118C018C000201851
:102AD0006A30FF300023037001238B700A70AA2331
:102AE0009B00E35C012B14D0AA25AD0001236355A4
:102AF0002068FEF7F1FB00236355002070BD501CD9
:102B000083001918C900611801204870E4E701200A
:102B1000F4E70220F2E770B504000B000F220A4030
:102B200041688A4230D85AB2002A23DB0720184075
:102B300082001118C9006931FF3161181218D200E2
:102B4000A2186A32FF320020107000228A70073209
:102B500013400B70AA239B00E35C012B16D0AA251F
:102B6000AD00012363552068FEF7DCFB00236355AD
:102B7000002070BD07201840013082001118C900E4
:102B8000611801204870E0E70120F2E70220F0E739
:102B900010B50C060CD50724214001318C006118BA
:102BA000C9004018002A0AD10273C380002010BD5A
:102BB0008C006118C9006931FF314018F2E7012229
:102BC000027303811B0C4381F0E70268BA239B0068
:102BD0000121C150083B0021C1545423D15A012086
:102BE0000143D152D15A01300143D15200207047E4
:102BF00070470000F0B5CE46474680B583B0041E4E
:102C000000D156E20368DB072BD5BC4B5A680C2376
:102C10001340042B1DD0B94B5A680C231340082BCA
:102C20000ED06368012B42D0002B59D1B34B1A68E8
:102C3000B3490A401A601A68B2490A401A603CE077
:102C4000AE4B5B68C0225202134080225202934274
:102C5000E7D1AA4B1B689B0303D56368002B00D107
:102C60002DE223689B077DD5A44B5B680C221A429A
:102C700067D0A24B5A680C231340082B58D0E36846
:102C8000002B00D191E09D4A136801210B43136092
:102C900000F0DEFB0500994F02263B681E427BD107
:102CA00000F0D6FB401B0228F7D9032002E2934A2A
:102CB000116880235B020B4313606368002B27D0ED
:102CC00000F0C6FB05008D4F8026B6023B683342FC
:102CD000C7D100F0BDFB401B6428F7D90320E9E110
:102CE000052B09D0854B1A6885490A401A601A6875
:102CF00084490A401A60E0E7804B19688022D202BA
:102D00000A431A601968802252020A431A60D4E703
:102D100000F09EFB0500794F8026B6023B683342E7
:102D20009FD000F095FB401B6428F7D90320C1E138
:102D3000724B5B68C02252021340802212029342FF
:102D40009DD16E4B1B689B0704D5E3680120012BC6
:102D500000D0AFE169490A682369DB00F8208243AB
:102D600013430B6023681B0747D5E369002B30D062
:102D7000624A536A01210B43536200F069FB05006C
:102D80005E4F02267B6A1E4237D100F061FB401B7A
:102D90000228F7D903208DE158490A682369DB002E
:102DA000F820824313430B60DCE7544A1368012187
:102DB0008B43136000F04CFB0500504F02263B682C
:102DC0001E42CFD000F044FB401B0228F7D903205D
:102DD00070E14A4A536A01218B43536200F038FB89
:102DE0000500464F02267B6A1E4206D000F030FBEB
:102DF000401B0228F7D903205CE123685B0700D45D
:102E000089E03E4BDB6900229146DB000BD43B4B53
:102E1000DA69802149050A43DA61DB690B400193D5
:102E2000019B01239946384B1B68DB050ED5A3682F
:102E3000012B21D0002B39D1304B1A6A01218A4352
:102E40001A621A6A03318A431A621AE02E4A11681A
:102E500080235B000B43136000F0FAFA06002A4D52
:102E600080277F002B683B42E1D100F0F1FA801B04
:102E70006428F7D903201DE1204A136A01210B437E
:102E80001362A368002B27D000F0E2FA06001B4B68
:102E9000984602271D4D43461B6A1F4238D100F059
:102EA000D7FA801BA842F6D9032003E1052B09D0ED
:102EB000124B1A6A01218A431A621A6A03318A4341
:102EC0001A62DEE70D4B1A6A04210A431A621A6A73
:102ED00003390A431A62D4E700F0BAFA0600074B36
:102EE00098460227094D43461B6A1F4210D000F046
:102EF000AFFA801BA842F6D90320DBE000100240A5
:102F0000FFFFFEFFFFFFFBFF007000408813000083
:102F10004B46012B37D02368DB0610D56369012BA4
:102F200037D0053356D1684A536B04218B43536322
:102F3000516BA369DB00F82081430B435363236A81
:102F40000020002B00D1B5E05F4A51680C220A40F6
:102F5000082A00D193E0022B54D05B4A13685B49E6
:102F60000B40136000F074FA0400574E8025AD0446
:102F700033682B4200D180E000F06AFA001B02287F
:102F8000F6D9032096E0504AD36951490B40D361EA
:102F9000C1E74D4B5A6B04210A435A635A6B0339FC
:102FA0000A435A6300F054FA0500474F02267B6B30
:102FB0001E4206D100F04CFA401B0228F7D903202C
:102FC00078E041494A6BA369DB00F8208243134350
:102FD0004B63B4E73C4B5A6B04210A435A635A6B68
:102FE00003398A435A6300F033FA0500364F02264C
:102FF0007B6B1E42A3D000F02BFA401B0228F7D9AE
:10300000032057E0304A136830490B40136000F04A
:103010001FFA05002C4F8026B6043B68334206D0C9
:1030200000F016FA401B0228F7D9032042E0264B95
:10303000DA6A0F218A43E16A0A43DA625968A26AAE
:10304000606A0243234801400A435A60196880229B
:1030500052040A431A6000F0FBF904001A4E80255E
:10306000AD0433682B4206D100F0F2F9001B0228B0
:10307000F7D903201EE000201CE000201AE0012BFD
:103080001FD0114B5A68DD6AC0235B021340616A8E
:1030900001208B420ED10F232B40E16A8B4209D1D4
:1030A000F0239B031A40A36AD21A531E9A41D0B24E
:1030B00000E0012003B0C0BCB946B046F0BD01201D
:1030C000F8E70120F6E7C04600100240FFFFFFFED0
:1030D000FFFFFFEFFF7FC2FF30B589B004AA174B97
:1030E00031CB31C21B6813606A46154B31CB31C2FC
:1030F0001B681360134B5A680C231340082B02D033
:10310000114809B030BD910C0733194004A8445C44
:103110000C49C96A0B406946C95CC0235B021A406E
:1031200080235B029A4204D00748FCF7C9FF604342
:10313000E7E70548FCF7C4FF6043E2E7A046000864
:10314000B44600080010024000127A00F8B5CE46DE
:10315000474680B504000D00002800D182E0434BB3
:103160001A68012313408B420AD240490B6801229E
:1031700093432B430B600B681A400120AA426DD188
:1031800023689A070ED55B0705D5394A5168E023B5
:10319000DB000B435360364A5368F0218B43A16830
:1031A0000B4353602368DB0730D56268012A21D0C6
:1031B000022A25D02E4B1B689B0755D52C494B68FE
:1031C0000320834313434B6000F042F90600284B71
:1031D00098460C27274B994643465A683A406368FD
:1031E0009B009A4212D000F033F9801B4845F3D976
:1031F000032033E01E4B1B689B03DFD401202DE02E
:103200001B4B1B689B01D9D4012027E0174B1A6880
:1032100001231340AB4208D9144B1A6801218A4399
:103220001A601B680120194218D123685B0706D574
:103230000F4A536810490B40E1680B435360FFF796
:103240004BFF0B4B5B680D490D4A1B061B0FD35CF4
:10325000D8400860032000F0B9F80020C0BCB9468F
:10326000B046F8BD0120F9E70120F7E70020024051
:103270000010024088130000FFF8FFFF70000020DC
:10328000C8460008F0B5CE46474680B583B0040076
:103290000368DB033AD5474BDB690025DB000AD422
:1032A000444BDA69802149050A43DA61DB690B4046
:1032B0000193019B0135404B1B68DB054AD53D4B13
:1032C0001A6AC0239B00110019401A4215D0636886
:1032D000C022920013408B420FD0364B1A6A3749F6
:1032E00011401E6A8020400230431862186A344E32
:1032F000304018621962D20744D42E4A136A2F490B
:103300000B4061680B431362012D4ED02368DB072D
:1033100006D5284A136B03218B43A1680B43136323
:1033200023689B0606D5234A136B10218B43E16863
:103330000B431363236800209B0306D51D4A136BC0
:1033400080218B4321690B43136303B0C0BCB94692
:10335000B046F0BD184A116880235B000B43136030
:1033600000F076F80600144B984680277F0043460D
:103370001B683B42A3D100F06BF8801B6428F6D990
:103380000320E2E700F064F806000A4B98460227A3
:103390000C4B994643461B6A1F42AED100F058F8C9
:1033A000801B4845F6D90320CFE7D36906490B4077
:1033B000D361ABE70010024000700040FFFCFFFF4C
:1033C000FFFFFEFF88130000FFFFFFEF70B5040052
:1033D0000E4D0F4B1978FA208000FCF771FE0100AA
:1033E0002868FCF76DFE00F089F800280BD1013049
:1033F000032C09D800222100404200F041F8054B7F
:103400001C60002000E0012070BDC046700000205C
:10341000680000206C00002010B5064A13681021D7
:103420000B4313600320FFF7D1FFFDF7F1FC0020F1
:1034300010BDC04600200240034A1168034B1B78B0
:103440005B1813607047C0467C0F002068000020A6
:10345000014B18687047C0467C0F002070B504000F
:10346000FFF7F6FF0500631C02D0044B1B78E4183D
:10347000FFF7EEFF401BA042FAD370BD68000020AA
:1034800070B5002814DB8408A400144B9C466444E7
:10349000C026B600A55903220240D200FF2318001F
:1034A0009040854389010B4093402B43A35170BD4D
:1034B0000F230340083B9B089B00094A9446634442
:1034C000DC6903221040C000FC3215008540AC438B
:1034D00089010A4082402243DA61E8E700E100E026
:1034E00000ED00E0002805DB1F220240012393408D
:1034F000014A13607047C04600E100E001388023B4
:103500005B0498420FD2094A50600948036A1B02C3
:103510001B0AC02109060B43036200239360073393
:103520001360002070470120FCE7C04610E000E077
:1035300000ED00E0034B5B68034A1B061B0FD35CE6
:10354000D840704700100240C8460008034B5B6833
:10355000034A5B055B0FD35CD84070470010024004
:10356000D846000870B5074B5A68D96A5D680F24C1
:10357000214001310448FCF7A3FDAD0C2C4002347E
:10358000604370BD0010024000127A0010B5054B78
:103590005A680C231340082B01D0034810BDFFF7D5
:1035A000E1FFFBE70010024000127A0010B50400B2
:1035B000FFF7ECFF2060FFF7BDFF6060FFF7C6FF7D
:1035C000A06010BD10B503000020002B12D1114BDC
:1035D0001A6B03231340022B16D0032B0BD0012BA5
:1035E00006D0FFF7D3FFFFF7A5FFFFF7AFFF01E01E
:1035F000FFF7CCFF10BD074B1B68022210001840DC
:103600001A42F7D00448F5E7024B186A8007C00F4A
:10361000C003EFE70010024000127A0030B585B019
:1036200004000D0003680120DB071ED422684B68EC
:10363000C9680B4329690B43A9690B4321490A4017
:10364000134323606368204A1340AA6813436360EE
:10365000A3681E4A13406A691343A3601C4B9C4233
:1036600005D01C4B01209C4219D005B030BD002074
:10367000FFF7A8FF03000120002BF6D029680029DE
:10368000F3D080221202A86990420DD04808C018D9
:10369000FCF716FD03041B0CE3600020E5E701A81E
:1036A000FFF784FF039BE6E758004B08C018FCF7C0
:1036B00007FD094B03400007400F1843E06000205E
:1036C000D3E7C046F369FFEFFFCFFFFFFFFCFFFF2B
:1036D0000038014000440040F0FF0000F0B5D6463D
:1036E0004F464646C0B50B68002B5BD00022012434
:1036F000A14620E0C3689846270067437B009C46AC
:10370000BC446346DE430B697B439A4645466346A9
:103710009D432B0055461D43C5604B68022B26D0A8
:1037200004684B687B4334402343036001320B68D9
:103730001C00D44036D04E4696401C0034403342E4
:10374000F4D04B68013B012BD4D883682700674332
:103750007E00F619B3438E687E43334383600F685F
:103760004368BB43CE687E4333434360C2E7FF2CCC
:103770000CD8036A3C007C43A44624016546641BC4
:10378000A3434C696C4323430362C9E7436A240A99
:103790006443644325012D1BAB434D696C432343B4
:1037A0004362BDE70020E0BCBA46B146A846F0BD82
:1037B000704710B5002816D0AD239B00C358002BCE
:1037C00003D0AD239B000024C450002902D0AC23B9
:1037D0009B00C150A7239B000121C1540270FDF73B
:1037E0008DF8002010BD0220FCE7002904D0AD2395
:1037F0009B00C150002070470220FCE710B5FDF788
:10380000BFF8002010BD10B5AD239B00C358002B9E
:1038100005D01B689847431E9841400010BD022008
:10382000FCE710B5AD239B00C3585B6898470020A8
:1038300010BD000070B50400AA239B00C518280025
:1038400000F04AF9A5239B000122E250114BE25AF5
:10385000163BE2501033E15C1F230B40012B0FD0CD
:10386000022B12D0002B05D07F2399432000FDF7B7
:10387000A5F803E02900200000F04CF9002070BDFD
:103880002900200000F034FBF8E72900200000F0B8
:1038900060FBF3E7AE02000070B504000D001100FC
:1038A000002D38D1A5239B00C358032B0CD0280032
:1038B000052B3ED1A5239B000022E25000212000D1
:1038C000FDF77CF8280034E002005532FF32D3685F
:1038D000126993420DD99B1A5530FF30C3609A424A
:1038E00005D99AB2200000F056FC280021E092B2DF
:1038F000F8E7AD239B00C3581B69002B04D0A72217
:103900009200825C032A04D0200000F04CFC2800C6
:103910000FE09847F8E7AD239B00C3589B69002B45
:1039200008D0A7229200825C032A05D1290098477B
:10393000002070BD0220FCE70220FAE7F8B5040081
:103940000D001100002D58D1A5239B00C358022B58
:103950000CD00422934302D18021FDF72FF8A82335
:103960009B00E35C2800012B42D0F8BD026A466A46
:10397000B24220D8C76931003800FCF727FC002983
:1039800006D1BE4204D8A6239B00E3589F421ED313
:10399000AD239B00E358DB68002B04D0A7229200E4
:1039A000A25C032A21D080212000FDF707F8200027
:1039B00000F005FCD3E7921B026292B200F0D2FB4A
:1039C0000023002200212000FDF735F8C7E7002280
:1039D000200000F0C7FBA6239B000022E25000233A
:1039E00000212000FDF727F8B9E720009847DAE723
:1039F000A8239B000022E254B7E7AD239B00C358E5
:103A00005B69002B08D0A7229200825C032A05D1B3
:103A1000290098470020A8E70220A6E70220A4E793
:103A200070B50400402300220021FCF7B2FF0125FD
:103A3000AC235B00E55040260C33E650253BFF3BB2
:103A4000002280212000FCF7A4FFA5616662A72365
:103A50009B00E5540023A5229200A350636010321E
:103A6000A350AE239B00E358002B06D0AD239B0050
:103A7000E3585B68002120009847002070BD017466
:103A800000207047A7239B00C15C034A8154042295
:103A9000C25400207047C0469D020000A7239B002F
:103AA000C35C042B01D000207047024BC25C013B79
:103AB000C254F8E79D02000010B5A7239B00C35C29
:103AC000032B01D0002010BDAD239B00C358DB6940
:103AD000002BF7D09847F5E70B7803704B784370CD
:103AE000CA7812028B789B1843804A7912020B79AC
:103AF0009B188380CA7912028B799B18C380704708
:103B000010B504008021FCF759FF00212000FCF7CC
:103B100055FF10BD30B583B005000C000A78602356
:103B2000134019002039C022114205D0002B0CD0BF
:103B30002100FFF7E5FF05E0AD239B00C3589B681C
:103B400021009847002003B030BD6378092B00D9CD
:103B5000C8E19B00BF4AD3589F466B460022DA80DB
:103B600063881A0A072A00D9B5E09200BA498A5830
:103B70009746007CAC239B00EB581B686A46911D5E
:103B800098476B4606331B88002B00D1B3E0E288D0
:103B9000002A00D0A4E0280000F005FBD2E7037C57
:103BA000002B09D1AD239B00C3589B6A6A46901D28
:103BB000984702234370E4E7AD239B00C358DB6AB8
:103BC0006A46901D984702234370DAE7DAB2052A65
:103BD0005DD89300A14AD3589F46AC239B00C3589D
:103BE0005B68002B04D0007C6A46911D9847C8E7AB
:103BF0002100FFF785FFA5E7AC239B00C3589B6816
:103C0000002B04D0007C6A46911D9847B9E721003B
:103C1000FFF776FF96E7AC239B00C358DB68002BC9
:103C200004D0007C6A46911D9847AAE72100FFF75F
:103C300067FF87E7AC239B00C3581B69002B04D0A8
:103C4000007C6A46911D98479BE72100FFF758FFCB
:103C500078E7AC239B00C3585B69002B04D0007C41
:103C60006A46911D98478CE72100FFF749FF69E7F5
:103C7000AC239B00C3589B69002B04D0007C6A4690
:103C8000911D98477DE72100FFF73AFF5AE7210091
:103C9000FFF736FF56E7037C002B07D1AD239B00CF
:103CA000C3585B6B6A46901D98476AE72100FFF78F
:103CB00027FF47E7037C002B09D1AD239B00C358A6
:103CC0001B6B6A46901D98470723437059E72100F4
:103CD000FFF716FF36E721002800FFF711FF31E755
:103CE000191C934200D9111C8AB26B46D98001007D
:103CF000280000F029FAE388002B00D022E74AE7E9
:103D0000A388002B23D1E388002B20D163887F2B4D
:103D10001DD8A7229200825C032A0FD0DCB2504B40
:103D2000C4542100FCF775FE280000F03CFA002C7A
:103D300008D0A7239B000222EA5403E72100FFF7E3
:103D4000DFFEFFE6A7239B000122EA54FAE62100EA
:103D50002800FFF7D5FEF5E6A378424A1370012B41
:103D60000FD8A7229200825C022A0ED0032A25D007
:103D70002100FFF7C5FE3B4B19782800FFF751FDE6
:103D8000E0E62100FFF7BCFEDCE6002B13D00123A8
:103D90004360A7239B000322C2540121FFF733FD98
:103DA000022803D0280000F0FEF9CBE6210028000D
:103DB000FFF7A6FEC6E600F0F6F9C3E6002B11D029
:103DC0004168012920D0C9B2FFF72BFD254B197896
:103DD00069602800FFF717FD022810D0280000F0C6
:103DE000E2F9AFE6A7239B000222C25400234360FE
:103DF0000021FFF716FD280000F0D5F9A2E621000A
:103E00002800FFF77DFE9DE600F0CDF99AE6E388F5
:103E1000012B0BD1A7239B00C35C022B0AD9032BD8
:103E20000AD1011D012200F08FF98BE62100FFF776
:103E300067FE87E6002B04D121002800FFF760FE13
:103E400080E60023836001000831012200F07CF944
:103E500078E6C046E0460008084700082847000802
:103E60009E020000800F0020A7239B00C35C013B43
:103E7000022B13D8E388022B0CD1A9239B00C35833
:103E80005A1E93415B00C36001000C31022200F016
:103E90005BF957E62100FFF733FE53E62100FFF7F9
:103EA0002FFE4FE66388012B00D04BE6A9239B0031
:103EB0000122C25000F077F944E6A7239B00C35CBF
:103EC000013B022B0AD86388012B00D03AE6A923D4
:103ED0009B000022C25000F066F933E62100FFF794
:103EE0000FFE2FE621002800FFF70AFE2AE6C04653
:103EF00070B505000C000B7860221A40402A05D0EE
:103F00005B0603D5FFF7FCFD002070BDA7239B00D7
:103F1000EB5C013B022B17D82379012B0FD8AD2383
:103F20009B00EB589B68210028009847E388002BF2
:103F3000EAD10028E8D1280000F035F9E4E72100B3
:103F40002800FFF7DDFDDFE721002800FFF7D8FD9F
:103F5000DAE770B5050088880A78602313401C00F2
:103F6000203CC022144205D0002B0BD02800FFF7C4
:103F7000C7FD05E0AD239B00EB589B6828009847E0
:103F8000002070BDC2B24B78012B32D0032B05D07C
:103F9000002B56D02800FFF7B3FDF1E7A7239B00C5
:103FA000EB5C022B05D0032B12D02800FFF7A8FDF5
:103FB000E6E7530608D011002800FCF7FFFC80213B
:103FC0002800FCF7FBFCDBE72800FFF799FDD7E7AB
:103FD0004B88002B04D1530602D0CB88002B03D092
:103FE000280000F0E0F8CBE711002800FCF7E6FC21
:103FF000F6E7A7239B00EB5C022B05D0032B12D026
:104000002800FFF77DFDBBE7530608D0110028000C
:10401000FCF7D4FC80212800FCF7D0FCB0E7280096
:10402000FFF76EFDACE74B88002BA9D1530603D1F7
:10403000280000F0B8F8A3E711002800FCF7C7FC3F
:10404000F6E7A7239B00EB5C022B05D0032B18D0CF
:104050002800FFF755FD93E7520603D02800FFF72D
:104060004FFD8DE729005531FF31000606D40023AE
:104070000B600222280000F067F881E74139FF3920
:10408000F5E7000622D40F20104083001B189B0088
:10409000EB185933FF331B68002B2CD07F231340C0
:1040A0009C00E418A4005534FF342C19002053065A
:1040B00005D011002800FCF793FC431E98412060B6
:1040C00002222100280000F03FF859E70F2010409D
:1040D00083001B189B00EB189B69002B07D07F23E4
:1040E000134001339C00E418A4002C19DEE72800DB
:1040F000FFF706FD44E72800FFF702FD40E770B533
:10410000002820D00478002C08D003000126361A9D
:104110009C19E4B201331D78002DF9D164000234FA
:1041200014800C7003234B700478002C0BD0013BDF
:10413000002501305A1CD2B2CC540233DBB28D546C
:104140000478002CF5D170BD10B51300A5229200A3
:1041500002248450C36103620A000021FCF762FC60
:10416000002010BD10B513000A000021FCF75AFC16
:10417000002010BD10B51300A52292000324845026
:10418000393AFF3A8350043283500A000021FCF789
:1041900052FC002010BD10B513000A000021FCF7EE
:1041A0004AFC002010BD10B5A5239B000422C2507C
:1041B000002300220021FCF735FC002010BD10B5C3
:1041C000A5239B000522C250002300220021FCF7FA
:1041D00032FC002010BD000010B5AF239B00C35877
:1041E000002B0FD0AE2292008458B83AA05CFF2872
:1041F00008D0054AA25C9B682100984780239B0059
:10420000FF22E254002010BD01020000432303807E
:1042100000487047AC0000204323038000487047EB
:10422000F000002043230380004870474001002035
:104230000A230380004870473401002070B5040051
:10424000AE26B6008559FCF7FFFB83239B00E850A0
:10425000A359002B0AD083239B00E918083BE85898
:10426000B833E358DB689847002070BD0220FCE7B4
:1042700070B504000D00AE239B00C658002E24D05C
:104280000833C2588B005B189B00C318D8690028FC
:1042900008D08B005B18DB00D218916BFBF796FF00
:1042A000002905D085239B000022F250002070BD1C
:1042B000AB005B199B00E3180022DA6100232900A0
:1042C0002000FCF7AFFB0020F1E70220EFE7000041
:1042D000F0B583B005000C00AE239B00C758002347
:1042E0006A46D37101AA13800B78602216001E4023
:1042F0001A422BD0202E5BD1CA88002A1DD05BB277
:10430000002B0DDA4878AF239B00EB589B683900EF
:104310009847E28839002800FFF716FF00264AE098
:104320004A7880239B00FA54CA88244BFA54CA88DE
:104330003900FFF71FFF00263DE04878AF239B00C0
:10434000EB589B6800229847002634E04F780A2FEC
:1043500016D00B2F23D0002F03D0FFF7D1FB02265E
:1043600029E0A7239B00C35C032B03D0FFF7C8FB06
:10437000022620E0022201A9FFF7E6FE3E001AE035
:10438000A7239B00C35C032B03D0FFF7B9FB0226D6
:1043900011E001226B46D91DFFF7D6FE0BE0A723E3
:1043A0009B00C35C032B06D0FFF7AAFB022602E0AA
:1043B000FFF7A6FB0226300003B0F0BD01020000AB
:1043C00070B504008121FCF7F0FA0025E5620121B7
:1043D0002000FCF7EAFAB6235B00E55082212000BA
:1043E000FCF7E3FA2564AE239B00E358002B0BD0C7
:1043F000AF239B00E3585B689847AE25AD0060593A
:10440000FCF72EFB00236351002070BD70B5040043
:10441000037C002B3BD18025AD002B0002228121A3
:10442000FCF7B7FA0123E3622B00022201212000EE
:10443000FCF7AFFA0125B6235B00E550653BFF3B77
:10444000032282212000FCF7A4FA25648720800043
:10445000FCF702FB0500AE239B00E05000282FD0A4
:104460000433E3581B689847002385229200AB5021
:104470000432AB50267C002E17D18033143AAA5850
:104480009B0001212000FCF7D6FA300070BD4023CC
:1044900002228121FCF77DFA0123E3623F330222ED
:1044A00001212000FCF775FAC4E781239B00EA583C
:1044B000C53BFF3B01212000FCF7BDFA0026E4E7E5
:1044C0000126E2E7002904D0AF239B00C150002061
:1044D00070470220FCE7AE239B00C3588220800077
:1044E0001950842189005A5000207047AE239B0048
:1044F000C258B43BD1500020704710B50400AE2321
:104500009B00C258002A17D0A43BD3580120002B8F
:1045100000D010BD85239B000121D150043BD15810
:104520002163D35A8221890052588839FF392000EB
:10453000FCF778FA0020ECE70220EAE710B5AE239A
:104540009B00C258002A16D0047C002C09D180237D
:104550008121890052589B000121FCF76CFA200050
:1045600010BD81239B00D258C53BFF3B0121FCF7C6
:1045700062FA0024F3E70224F1E7000013488546BD
:1045800013480168090E134A914205D11248134994
:10459000016013481349016013481449144A002369
:1045A00002E0D458C4500433C4188C42F9D3114AE1
:1045B000114C002301E013600432A242FBD3FFF749
:1045C000F7F800F025F8FBF7FBFEFEE700180020E7
:1045D000040000001F00000018100240010000004D
:1045E00000000140000000000000002084010020C5
:1045F0004847000884010020840F0020FEE70300E4
:104600008218934200D1704719700133F9E7000016
:1046100070B500260C4C0D4D641BA410A64209D1A8
:10462000002600F019F80A4C0A4D641BA410A6429B
:1046300005D170BDB300EB5898470136EEE7B300E3
:10464000EB5898470136F2E740470008404700081A
:104650004447000840470008F8B5C046F8BC08BC0D
:104660009E467047F8B5C046F8BC08BC9E467047E9
:1046700056435000415F4420456C656374726F6E11
:104680006963730043444320436F6E6669670000AB
:1046900043444320496E746572666163650000009F
:1046A00002030405060708090A0B0C0D0E0F101073
:1046B000000000000102030405060708090A0B0CAC
:1046C0000D0E0F10000000000000000000000000B0
:1046D00001020304060708090000000001020304A8
:1046E000683E0008BA3E0008E43E0008A43E000808
:1046F000E43E0008003D00085A3B0008E43E000884
:104700000E3E0008583D0008D63C0008723B0008E9
:104710009E3B0008CC3B0008D63C0008D63C000875
:10472000963C0008B43C0008DA3B0008F83B00085F
:10473000163C0008343C0008523C0008703C00085D
:04474000010200086A
:04474400D90100088F
:10474800650A0008710A0008150B0008ED0A000840
:10475800A90A0008310B0008590B000812010002D1
:1047680002020040830440570002010203010000D6
:10477800040309041A030000000000000000000000
:104788000000000000000000000000000000000021
:10479800250D0008810B0008850B0008F50C0008A2
:1047A80000C2010000000800010000000400000031
:1047B80000127A000D440008C1430008D1420008E5
:1047C80000000000D9410008714200083D4200087D
:1047D800000000000000000000000000194200086E
:1047E8000D42000825420008314200080902430032
:1047F800020100C032090400000102020100052480
:104808000010010524010001042402020524060009
:10481800010705820308000109040100020A0000DB
:104828000007050102400000070581024000000062
:1048380009024300020100C032090400000102021B
:1048480001000524001001052401000104240202CE
:104858000524060001070582030800010904010078
:10486800020A000000070501020002000705810294
:10487800000200000A0600020000004001000000DB
:1048880009074300020104C03209040000010202C2
:10489800010005240010010524010001042402027E
:1048A8000524060001070582030800010904010028
:1048B800020A000000070501024000000705810206
:0448C80040000000AC
:040000050800457D2D
:00000001FF
